:020000041000EA
:1000000000B5324B212058609868022188439860DF
:10001000D860186158612E4B002199600221596106
:100020000121F02299502B49196001219960352056
:1000300000F044F80222904214D00621196600F024
:1000400034F8196E01211966002018661A6600F04E
:100050002CF8196E196E196E052000F02FF8012189
:100060000842F9D1002199601B49196000215960AB
:100070001A491B48016001219960EB211966A021F2
:10008000196600F012F800219960164914480160C1
:100090000121996001BC002800D000471248134993
:1000A000086003C880F30888084703B5996A0420EC
:1000B0000142FBD001200142F8D103BD02B5186610
:1000C0001866FFF7F2FF186E186E02BD00000240BE
:1000D000000000180000070000035F00212200005C
:1000E000F4000018222000A00001001008ED00E03C
:1000F00000000000000000000000000074B24E7A12
:1001000000200420F7010010CB010010CD010010E9
:10011000C9010010C9010010C9010010C901001077
:10012000C9010010C9010010C9010010CF01001061
:10013000C9010010C9010010D1010010D301001045
:10014000C1010010C1010010C1010010C101001067
:10015000C1010010C1010010C1010010C101001057
:10016000C1010010C1010010C1010010C101001047
:10017000C1010010C1010010C1010010C101001037
:10018000C1010010C1010010C1010010C101001027
:10019000C1010010C1010010C1010010C101001017
:1001A000C1010010C1010010C1010010C101001007
:1001B000C1010010C1010010C1010010C1010010F7
:1001C000EFF30580103800BE00BE00BE00BE00BECA
:1001D00000BE00BEF2EB8871A8280010C4280010F1
:1001E0003802001090A31AE71E481F49086006C88D
:1001F00081F3088810471D480068002801D019487D
:10020000F3E70DA40ECC002902D000F012F8F9E7B4
:100210001749184A002000E001C19142FCD116495B
:100220008847164988471649884700BEFDE701C937
:1002300001C29A42FBD37047C4280010C0000020BE
:10024000E8010020EC290010000004200000042038
:10025000EC29001000100420001004200000000011
:10026000704700000000000008ED00E0000000D032
:10027000E8010020680800207D23001061030010C1
:1002800075230010F8B5C0460448054B10B58342ED
:1002900003D0044B002B00D0984710BDE80100208C
:1002A000E80100200000000006480749091A8B10E9
:1002B000C90FC91810B5491003D0044B002B00D04A
:1002C000984710BDE8010020E80100200000000070
:1002D00010B5074C2378002B09D1FFF7D5FF054B4C
:1002E000002B02D0044800E000BF0123237010BDA2
:1002F0006805002000000000D4270010054B10B551
:10030000002B03D00449054800E000BFFFF7CCFFF5
:1003100010BDC046000000006C050020D42700106E
:10032000F8B5802500240B4E6D00200001F07CFD07
:10033000094901F02EFD094901F0E6FE064901F0E8
:100340003CFD01F0C5FD371901343870AC42ECD1E9
:10035000F8BDC0464C07002000007F43CDCC0C40C8
:10036000F8B5CE46474680B5FFF7DAFF04211920DD
:1003700000F040F8FF22194B194E1A663368194DE8
:100380001B0C1B042B60184B184F1A680123934356
:10039000174A1360FF2399467B1CFF339846B944E4
:1003A0003C00237832681B0453401B0C1B040820BC
:1003B0002B60013400F0A2FBA045F2D14C4623781B
:1003C00032681B0453401B0C1B042B60082000F0F8
:1003D00095FB2300013C9F42F1D1E1E7000005407D
:1003E0005C0005405C100540500005404C070020B3
:1003F00050100540094A83009A1810B5146840222D
:10040000544080322240064CC000A44663441A6027
:10041000044B9C466044416010BDC04604C001408E
:1004200004D00140004001400FB400B5084883B03B
:1004300002F0E2F8049B002B07D005A918000191F7
:1004400001F07EFF034802F0D7F8012001F090FF91
:10045000D4270010E427001070B5EFF3108C72B6AB
:100460000D4D2B68002BFCD0BFF35F8F0724CB080A
:10047000C618C05C01230C40A3401C00044003428A
:1004800007D118433070BFF35F8F2C608CF3108856
:1004900070BD1000FFF7C8FF2C0100D0044A10788F
:1004A000431CDBB2172B00D9102313707047C046D2
:1004B000980100200021044B044ABFF35F8F02C360
:1004C0009342FAD17047C046000100D0800100D0AD
:1004D000054B064A1360064A136053609360D3606D
:1004E00013615361936170478080808000E400E075
:1004F00004E400E01F2318401E3B8340002905D080
:10050000C021044A490053501360704780220149BA
:100510008B50FAE700E100E070B50D00EFF31086B4
:1005200072B60F4A1368002BFCD0BFF35F8F0D4BE0
:1005300010309B6884001B590B4A934203D09D42A4
:1005400001D000F0A1FD074B9B681D51BFF35F8FE9
:10055000BFF35F8F0022024B1A6086F3108870BDD4
:10056000240100D000ED00E0C1010010024B9C46C8
:1005700061448900016070474000003470B5114C3F
:10058000114DAC420FD2FF262368002B0CD0FFF791
:1005900085FF01002000FFF7E9FFA680BFF35F8F12
:1005A0000834AC42F0D370BDFFF778FF01002000A3
:1005B000FFF7DCFF2671BFF35F8F0834AC42E3D353
:1005C000F1E7C046E0010020E80100200A4B19686D
:1005D000EFF3108072B60A68002AFCD0BFF35F8F79
:1005E0001B68BFF35F8F00221A6080F3108840BF42
:1005F000002000217047C04664080020F0B5DE46A8
:1006000057464E464546E0B587B0EFF305830322D3
:1006100001251A40954091008846A946B34B0392A4
:100620005C58B34B1D60B34B04934B46B2484363D5
:100630000823E55E002D37DAA3881BB2002B00DB10
:10064000ADE0A379002B00D0EEE00823E05E0028A7
:1006500020DB430062691B18DB00D3189E68DD684D
:10066000731C00D111E1A44801004144826A0B6966
:10067000B71A9B1A9F4215D30123026A039883403D
:100680001A420FD09C4800F047FB8D4202DCCCD1CF
:100690008642CAD940BF07B0F0BCBB46B246A946A5
:1006A000A046F0BD0E61EDE762696B0092465B19F2
:1006B000DB009A4453469E68DF6800F02DFB8F42B2
:1006C000BADC00D103E1002F00DAE8E052465346DD
:1006D00052691B699346049A934200D1D9E052466D
:1006E0000821605E528800045946104398470090E4
:1006F00001910099019A0B001000134300D1CEE044
:1007000013000A00B61A9F41002806DB7A4800F061
:1007100003FB009E019F36184F4153469E60DF60E9
:1007200000229A5E002A00DA86E753009918606971
:10073000C900411802938B68C9689B46B94200DD25
:100740007AE702D1B34200D976E708239C46A44455
:10075000059565462281A446029B2C0006E05300C5
:100760009918C90041188D68C968AB469B18DB0011
:10077000C318B94206DC00D1B3E01C000023E25EDE
:10078000002AECDA230064469C4653461A806346EE
:10079000059D1D80A3881BB2002B00DA51E722695A
:1007A000EFF3108172B61368002BFCD0BFF35F8F9C
:1007B0000123A7885B42A3803FB22369BFF35F8F09
:1007C00000221A6081F31088002F00DA39E7230035
:1007D000083322009A4666697B00DB19DB00F318B8
:1007E000996850468C460824115FDD68002910DBAB
:1007F000029306E0AB4244D00023E15E20000029D2
:1008000006DB4C006418E4003419E368AB42F1DD08
:10081000029B078000201F5E1980002FDCDA140085
:10082000A379002B00D110E70023A3712600082331
:10083000E15E08364B1C00D12CE70800A246656932
:1008400002E03E004B1C1AD04B005B18DB00EF1897
:100850000A008C46E95E7B881BB2002BF1DA01238B
:100860005B42DC17BB60FC60824205D0534631809E
:100870001B893B8053461A8160464B1CE4D1544689
:10088000E5E6A3686345B7D9C2E76B1C00D0EAE68A
:10089000F8E65B4658461B69984700281BD153462B
:1008A0001B8822692381EFF3108372B61168002937
:1008B000FCD0BFF35F8F514662880A802269658051
:1008C000BFF35F8F0021116083F31088B4E6864286
:1008D00000D8F8E6B0E65B461A685B6800920193C0
:1008E00007E7B34500D848E74CE7C046500800206A
:1008F0003C700540FD0500100040054070B52E4CD1
:100900002569002D04D00A212C48FFF72FFE70BD69
:100910002B4E0321300000F0F5F9E660FFF7BEFD35
:10092000284B03229C46D02322701B061B68012102
:100930006370254B6044A3600F2380002061022078
:10094000638063694942A180198002311986473169
:100950001D83585218315A5275325C3999521832E7
:10096000013199521832013199521832013199529C
:10097000083518329D52023118329952183201311D
:100980009952183201319952183201319952183264
:10099000013199521832013199520C4B0C49DC60EB
:1009A00001303562FFF7B8FD01210320FFF7A2FDFA
:1009B000084B1D60A7E7C0469C010020640800208A
:1009C0000040054040000034FFFF100050080020A8
:1009D000FD0500103860054070B501000469EFF3B3
:1009E000108C72B620680028FCD0BFF35F8F022005
:1009F0000D5E4C6968004019C00024180869002D7C
:100A000036DB26884E80BFF35F8F002606608CF3AE
:100A10001088E36063880498013320615B040598C3
:100A20005B0CA26060611A1C002B1FD093B22804DB
:100A3000628018430A69EFF3108C72B61368002BBA
:100A4000FCD0BFF35F8F8B8823808D800B69BFF351
:100A50005F8F00221A608CF310880B7801329A4065
:100A6000CB6808498C4663441A6070BD0122DDE7FB
:100A7000BFF35F8F002303608CF310880120404296
:100A8000F3E7C0463C20000010B543890A149342A6
:100A90001ADD53009B184269DB00D3180469EFF399
:100AA000108C72B62268002AFCD0BFF35F8F5A8880
:100AB000090494B2090C8A4208D00369BFF35F8F1E
:100AC00000221A608CF31088002010BD80221202D0
:100AD00014435C80012302698371BFF35F8F00219F
:100AE00011608CF31088044902788C469340C268E8
:100AF000012062441360E8E73C200000F0B5C646E0
:100B000000B582B0040000F00FF9FA2206000F00D1
:100B1000200000230021920001F018F9801979418A
:100B200004000D1E02DA01242E4D64420626764290
:100B3000F71736196F41AF4214D811D000F0F4F80E
:100B400032003B00121A8B41002B15DC002B46D0E3
:100B50002000290000F0F2F802B080BCB846F0BDD9
:100B6000A642EBD90026002700F0DEF832003B0059
:100B7000121A8B41002BE9DD00F0D6F832003B0061
:100B8000121A8B41002B0ADB00230193164B320013
:100B9000009316483B00FFF71FFF0130D8D0002319
:100BA0003900B0469C46124A1248536A994204D80A
:100BB000966A4645CCD29942CAD10668EFF31087AF
:100BC00072B63368002BFCD0BFF35F8F0368BFF3AE
:100BD0005F8F66461E6087F3108820BFE5E7002A16
:100BE000B6D0C9E7FFFFFF7FCD0500109C010020B4
:100BF0000040054064080020F0B557464E46DE46EA
:100C00004546E0B506000F0085B0EFF30583994631
:100C10008B46002B12D0384900204B6ABB4206D3CA
:100C20008A6ADB1B591E8B41B2424041184305B012
:100C3000F0BCBB46B246A946A046F0BD2F4B9A4633
:100C4000DB68984653461B784046039300F064F8EF
:100C50004246039B040004339B009B580D001B1A63
:100C600039003000001BA941894510DC0DD020BFA0
:100C7000214A0020536A5B45D9D3926ADB1B591E77
:100C80008B41B24240411843D1E78342EFD900F093
:100C90004BF832003B00121A8B41002B1ADB002369
:100CA0000193174B3200009350463B00FFF794FE30
:100CB000011E0FDD104B5A6A5A451BD39B6AB34283
:100CC00016D35046FFF7E0FE0B4A0020536A5B45FF
:100CD000ADD3D2E7084A0020536A5B45A7D3002072
:100CE000926ADB1BB24240415A1E934118439EE771
:100CF0005A45E6D120BFE4E7004005409C010020B2
:100D0000CD05001010B5024A0248FFF7A5FB10BD43
:100D1000E8270010180700200300416A0A00986ABB
:100D2000596A8A42FAD17047034B596A0A00986A95
:100D3000596A9142FAD1704700400540064A536A09
:100D40009942FCD807D1044B02E05A6A914202D181
:100D50009A6A9042F9D8704700400540F8B5DE46DF
:100D60004E4657464546E0B58B4605000A991800A1
:100D7000160000F0B3FA0A9B6C001F02324B641994
:100D80009C46A4006444636881469F4200D9676022
:100D90002B1FDBB29846012B30D9C02380229B0148
:100DA000E31812011A60294BAD0059599A460029DF
:100DB0001BD17301E026226853401E408023424627
:100DC0005B01E3181E60012A30D9802380229B0139
:100DD000E31812011A6053464A4667605A51F0BC44
:100DE000BB46B246A946A046F8BD586900F076FA5F
:100DF000013043001B18033BFDD2DAE75B46012BB1
:100E0000CBD1C02303229B01E3181A60023AA368E6
:100E10001A42FCD07301E0262268AD0053401E4008
:100E200080230A4A5B019246E3181E605A462168F5
:100E3000514003220A401A6001225B469A40A3688F
:100E40001A42FCD0C1E7C046008000401C070020C9
:100E5000F0B546464F46D646C0B51F00344B440059
:100E60009C462418A4006444636888461600FF2B3F
:100E700002D880235B006360031FDBB29A46012B1C
:100E800030D9C02380229B01E31812011A60294B3C
:100E900085005959994600291BD17301E026226823
:100EA00053401E40802352465B01E3181E60012A16
:100EB00030D9802380229B01E31812011A6080231D
:100EC0005B0063604B465F51E0BCBA46B146A84642
:100ED000F0BD586900F002FA013043001B18033BD3
:100EE000FDD2DAE74346012BCBD1C02303229B017D
:100EF000E3181A60023AA3681A42FCD07301E02694
:100F00002268850053401E4080230A4A5B019146B7
:100F1000E3181E6042462168514003220A401A60CD
:100F2000012342469340A2681342FCD0C1E7C04669
:100F3000008000401C070020014B8000C058704713
:100F40001C070020F8B5040021481E0017000D0002
:100F500000F0C4F90100380000F0C0F9069B360427
:100F60001B031E432368002B20DB1A4B1A49E3188E
:100F70005A1E93418022920194465B421B0B174AF2
:100F80001B0363441360164A13601F000A689743EB
:100F9000FBD1144B2560E2182123A0601360236865
:100FA000002BFCDA0823E6601360F8BD3F232268BB
:100FB0001340AB42D9D1A3681B051B0D8342D4D18A
:100FC000EE22E368D2021340B342CED1EDE7C04631
:100FD000001BB7000040FDBF08C0004000E000401B
:100FE00000F00040043000008023024A9B000B43C5
:100FF000D362704700800540002310B50100988A35
:101000001B8B984710BDC046162310B501001888E9
:1010100002331B88984710BDF8B54746CE4680B5C9
:101020000F1E18D01423994604330400002501260E
:1010300098464B461888434621681B88984701C448
:10104000431E984101350640AF42F2D13000C0BC8A
:10105000B946B046F8BD0126F8E7C046AA23064ABD
:101060001B0113608D235B00D3600449044B19609E
:101070005368002BFCDA70470040024000B0FA00D1
:10108000006002407047C04610B50148FFF7CCF938
:101090000C28001070B5074D074EB54209D2002448
:1010A000013E761BB60808CD984723000134B342B1
:1010B000F9D170BD90270010CC270010054B064ACF
:1010C00006491A60064A074B1A6010000B689843DD
:1010D000FBD1704700E00040BFCDFBFE08C00040E0
:1010E000FE7F3C0000F00040044BDB6C002B03D182
:1010F0008022034BD2021A607047C0460000115094
:101100004C201150044A054B1A60054A1368DB0154
:101110008033FBD17047C046FFFFFF0100F0004065
:1011200008C000404022034B9A675A671A67DA6684
:101130007047C04600F0014010B5FFF7BBF910BD85
:10114000F8B52749274C284D641AA6103200302ED6
:1011500000D930222800920001F0E4F8BC2C3BD8E2
:1011600030202F232C196407204A801BE40F9B1B7F
:10117000052B16D93700002C02D0B300771CEA509B
:10118000001B33199B004108EB18C900C9181A60ED
:101190005A6008339942FAD1012303421CD0984384
:1011A000C619B300EA50731C2F2E15D09B00EA50CD
:1011B000B31C2E2E10D09B00EA50F31C2D2E0BD00A
:1011C0009B00EA50331D2C2E06D09B00EA50731D65
:1011D0002B2E01D09B00EA50054B9D60F8BDC04608
:1011E00000010010C001001000000020C10100102B
:1011F00000ED00E0002310B5294C82B0A367FFF793
:101200002DFF0122274B1A60636C012BFCD10322B6
:10121000254B1A60224A936B012BFCD101330093BA
:101220000121224A22480433FFF78CFE05230121C5
:101230000093204A2048FFF785FE00220221042067
:101240001E4BFFF705FE0022012105201C4BFFF776
:10125000FFFD0022002107201A4BFFF7F9FD0022B5
:1012600000210820174BFFF7F3FD8023DB000093DC
:10127000002200210920134BFFF770FD0022104BC4
:1012800000210620FFF7E4FD0420FFF755FE0E497C
:1012900000F024F801000020FFF7A6FE02B010BD08
:1012A000008000403CB0004030B00040002F685942
:1012B00000800240008C864700C00240001BB7003F
:1012C00040597307006CDC0240420F0001480421C2
:1012D000014B1847C001002019100010114A936FEC
:1012E0009B0813D210665166002905D0FFE7FFE77F
:1012F000FFE7516F106F704704B5002801D0002040
:10130000C04301F035FA002104BDC046F0B5146EAB
:10131000556E576F166FFFF7E5FF146655665767F2
:101320001667F0BD000000D048404140484018B466
:101330001B4B5B68FC46019308BD04DFC71400101B
:1013400018B4174B1B68FC46019308BD00DFD1148D
:1013500000109446134A926F920809D2624618B45C
:101360000F4BDB68FC46019308BD0CDF89170010AA
:101370000C4AF0B5146E556E576F166F6246FFF744
:10138000EEFF084A1466556657671667F0BD18B435
:10139000034B9B68FC46019308BD08DF2D16001027
:1013A00068030020000000D018B4044BDB6FFC463B
:1013B000019308BD7CDF391900100000680300208C
:1013C00018B4044BDB6CFC46019308BD4CDFE51AF6
:1013D000001000006803002018B4044B1B6DFC468D
:1013E000019308BD50DF811B00100000680300203E
:1013F000132370B51D78012D19D014DD1F48FFF798
:1014000003FE06001E48FFF7FFFD1E4C8022310040
:10141000200000F087FF022D2DD01B48FFF7ECFDC8
:101420001A4B186070BD1A4B164CA364F5E7184BA5
:10143000144C23606360A360E36023616361A36174
:10144000E36123626362A362E36223636363A36372
:10145000E36323646364A364E36423656365A36552
:10146000E36523666366A366E36623676367A36732
:10147000E367A364D1E7064BA364CEE753440000BF
:1014800053460000680300204C3300006008002031
:101490009514001007B5604601880A0A0230DF2A59
:1014A000FAD1C9B2820804D30288408800041043EC
:1014B00000E00068014A5050039007BD6803002017
:1014C0000FB403BC0CBCF0B50124E407634000E09A
:1014D000F0B50C0DCF0F661E3605891B640503D3CE
:1014E000C943404200D30131640D03D0661CF60AA3
:1014F00007D0E41B00207F00791C89078912803CFB
:1015000024031D0DDF0F6E1E36059B1B6D0503D3D7
:10151000DB43524200D301336D0D03D06E1CF60A3B
:1015200007D0ED1B00227F007B1C9B079B12803D98
:101530002D032F1B661B58D4A446202E46DA2037D5
:101540001400BC401D00BD40F24033412A438018C6
:101550005941CB0F05D0C943C043002264425041DA
:10156000514162464D0D28D10D0D07D100281FD0E5
:10157000241940414941013A0D0DF9D0640006D3C8
:10158000013000D30131002C01D140084000013A64
:101590000BD4941CE40A04D112051144DB0719444E
:1015A000F0BDD907204B194300E0D9070020F0BD5A
:1015B0000029DDD1002CDBD1F0BD0132C607400887
:1015C000CD0728434908002EE1D0D9E73C2E29DA7F
:1015D000203E40371400BC4000D00124F2401443A8
:1015E0001A00BB401C43D317ACE7AC46202F08DAE7
:1015F00020360400B4400D00B540F840394128437E
:10160000A5E73C2F0CDA203F40360400B44000D060
:101610000124F84004430800B1400C43C117EAE735
:1016200010001900002494E70000F07FF0B50C0DC5
:10163000661E3605891BE60A6405640D02D0651C2A
:10164000ED0A04D0002001210905803C2403A446B2
:101650001C0D671E3F05DB1BE70A6405640D02D005
:10166000651CED0A04D0002201231B05803C2403E5
:101670007740644497B484B296B27443070C7E43B7
:10168000150C6F4380B26843361802D30120000462
:101690003F183004350C00197D41844688B29AB257
:1016A00050430C0C62431F0C7C438EB27E43921954
:1016B00002D301263604A4191604170C3618674104
:1016C00001BC81B29AB25143040C62431B0C5C43CF
:1016D00080B25843121802D30120000424181004C9
:1016E000130C401863412D185E410020474106BC91
:1016F00088B293B258430C0C6343120C544389B222
:1017000051435B1802D301210904641819041A0C0F
:10171000091862416D1856410020474118BCF90272
:10172000720D1143F0026A0D1043ED020A0D03D150
:101730006D1940414941013B124E9B1B7600B3425B
:101740000ED26D0007D30130002671416646354345
:1017500001D1400840001B05C918E4072144F0BD31
:101760000BDA013306D1013004D101314F0D01D024
:101770004908F2E7E1070020F0BD013631050020FD
:10178000EBE70000FF030000F0B51C0D671E3F05EE
:10179000DB1BE70A6405640D02D0661CF60A04D060
:1017A000002201231B05803C2403D0252D060026A2
:1017B000F6432E661E096E66CE0FF619B446490032
:1017C0004F0D02D07E1CF60A03D000200021403FBE
:1017D0003F033E1BB600B444013F7F05C91B4908C7
:1017E0002E6F013676089C02950D25437543ED1347
:1017F0007543AD1301356D10F603761B0CB4CC02A6
:10180000450D2C43A2B2B3B25A43270C7B43350C8F
:101810006F43A4B26C431B1902D3012424043F1963
:101820001C041D0CA4187D4124196D41009A91B22D
:10183000ACB26143170C7C432B0C5F4392B25A430A
:10184000A41802D301221204BF182204230C521838
:101850007B41019C6C431B19520ED9010A43440180
:10186000A01A81B2B2B2514303145A43360C7343E7
:1018700087B27743D617D21900277E4136049B19C9
:101880001704160C7F185E417316ED18F30100263D
:1018900080337541A90F06D16400690AE8055B0A27
:1018A000184309D22FE00422944480337541A90AD9
:1018B000A8059B0A184326D3404149412404009AB5
:1018C000019B0D005543641B4343E41A95B286B255
:1018D0007543170C7E43030C5F4392B25A43B6180C
:1018E00002D301221204BF183204330C52197B4177
:1018F00052429C41002C02D4002201305141400848
:10190000CA071043490802B06246D7079210084B35
:10191000D218084B9A4203D212058918C919F0BD92
:101920000020002A01DC3900F0BD01331905F5E77C
:10193000FD030000FE0700004A00520D144BD21AAE
:1019400013DDFF2A1EDAD205CB0FDB071A43C300D3
:10195000400F0903490A084310435B0001D301D03B
:10196000013070474308FBD2704702D0C80FC00750
:1019700070470A0312130132F8D1420F072AF5D13A
:10198000012200E0FF22C80F00028018C005704746
:101990008003000000210A00002104E000210A0069
:1019A000C11704E00022002306E0C0460022CB1746
:1019B00058405940C01A994130B5184CA21A002914
:1019C00003D1010010D00020203A4C1512D104D2CE
:1019D000013A001849414C0DFAD3114CA24204D2ED
:1019E00012058918DB07C91830BDD243520D0020FB
:1019F0000021F5E703D4013A00184941FBD50B3229
:101A00004405C00A4D052843C90A640003D00024D8
:101A100060416141E1E7E0D34408F8E732040000A7
:101A2000FE0700000A0DCC0F531E1B05C91A5205F4
:101A300003D3C943404200D30131520D03D0531C9C
:101A4000DB0A07D0121B00206400611C8907891281
:101A5000803A1203014BD21A70470000FF030000C6
:101A6000023225D40C2A1CDA1125AD1A0B002B41A9
:101A7000083207350600EE40904091403143F0CCEB
:101A800063431A1500235A41554356435743BF0237
:101A9000F412760576196741ED177F19801BB9415D
:101AA00070470C220020C917490001310905DBE706
:101AB0000902030E194300025342203208D40C00DD
:101AC00019419440D8402043002250415141704771
:101AD0000800C917203B2032F1D500200021002248
:101AE00070470000F0B5FFF79DFF54A4FFF7B8FF63
:101AF000002904DA204C214D00196941013A04B44F
:101B0000012752A6002201239B0730CEB446001BBA
:101B1000A9410BD47E4220361D003D411C00B4403B
:101B20001600FE40344362416B4101E000196941F7
:101B300066460137212FE8D185B29EB2754307145E
:101B40007E43190C4F4384B24C43F11736190024DD
:101B5000614109047F183404310C64197941A40FE0
:101B60008800204389178018594104BC52423E32F4
:101B7000FFF71DFFF0BD00006BDE73F4FD855C2CEC
:101B8000F0B54F0050D27F154ED001374FD0FFF740
:101B900049FF04B44902C20D1143400201272BA69C
:101BA000B446002200237E4220360D003D410C0049
:101BB000B4400600FE40344344414D41AE0F05D1D0
:101BC00020002900664630CE121BAB410824A444F5
:101BD0000137212FE7D18900891012184B4180BCB1
:101BE00017A413CC0137784379437C434F05C912BE
:101BF000CD17C0196941A702A415CD17C9196C41A9
:101C0000DD17801859416C413E22CD17AC4208D0F7
:101C100000090E0730430909260731432411043A0D
:101C2000F3E7FFF7C4FEF0BD02490020F0BD024912
:101C30000020F0BD0000F0FF0000F07FAAB8000017
:101C40006BDE1300A3EF0F0021170B00F34B98BFBF
:101C5000EC23F319D6104DCDE3FB470E7AB9BC8ABD
:101C6000DBC18907CC542C021846E103053083E719
:101C7000B029F8011E1FE0874505FE00249E41ACF7
:101C8000A9807F008117624515E03F00E610ABA9EF
:101C900002F81F008858455500FE0F00C4AAA90A83
:101CA00080FF070056455501E0FF0300ABA92A005D
:101CB000F8FF010045550500FEFF0000AAAA0080BC
:101CC000FF7F0000551500E0FF3F0000AB0200F869
:101CD000FF1F0000550000FEFF0F00000B0080FFFB
:101CE000FF0700000100E0FFFF0300000000F8FF15
:101CF000FF0100000000FEFFFF0000000080FFFF6A
:101D00007F00000000E0FFFF3F00000000F8FFFF41
:101D10001F00000000FEFFFF0F00000080FFFFFF1C
:101D200007000000E0FFFFFF03000000F8FFFFFFD7
:101D300001000000FEFFFFFF000000000000008027
:101D40000000000000000040000000005143434339
:101D5000C9188C46110C83B24B4310B4040C614378
:101D600092B280B2504362431C041B0C001910BC99
:101D700059411304120CC0185141614470470000CE
:101D80004840414048400E4B5B6818470C4B1B686D
:101D900018470C4A936F9B0802D2094BDB6818471F
:101DA000F0B5146E556E576F166FFFF7F6FF054AC4
:101DB0001466556657671667F0BD014B9B68184758
:101DC00068040020000000D007B54840414048406A
:101DD00001E0C04607B54200120E03D0FF2A03D12E
:101DE000420218D8C00DC0054A00120E03D0FF2AC7
:101DF00003D14A020FD8C90DC9050122414005D4BB
:101E0000414001D5814207BD884207BD01434918C1
:101E100001D0C043001807BD00B5FFF7DBFF01D0BC
:101E2000002000BD012000BDC10FC90700D5404200
:101E3000002817D0F44603B40B4B1B68984706BC28
:101E400081409E384042803107D20B0607D04900BE
:101E5000490AC0051043084360470130F8E7490AC2
:101E60008902F5E7704700006008002041000A0E73
:101E700080231B067E2A0BDD9E3A0BDAC117400237
:101E8000400818435242D04049000131484370474E
:101E900000207047C00FC01801387047C0420DD3F2
:101EA00000B540004008002100F012F8002801D4DD
:101EB000404200BD8020000600BD0000034BDB69EE
:101EC000FC4618471CDFCD220010000068040020EB
:101ED000014B5B6A1847000068040020034BDB6F6E
:101EE000FC4618477CDFE522001000006804002053
:101EF000132310B512481C78FFF786F80100012C57
:101F00000AD003DD80220F4800F00CFA0E48FFF7DC
:101F100073F80E4B186010BD0A4C5422200000F0DC
:101F200001FA0B4B6365A365E36523666366A366ED
:101F3000E36623676367A367E3672362E361E5E71B
:101F400053460000680400204C3300006008002065
:101F5000A1220010F8B5CE4647460C0080B5051CFE
:101F600001294AD0CE0F76187610012E3DD00327D6
:101F7000CA1717407F18BF10012F2ED00723134018
:101F80005B18DB109846012B22D00F2313405B18FF
:101F90001B119946012B12D00B00203B1F2B05D99A
:101FA0000021FFF7D7FF011CFFF707FF011CFFF718
:101FB00004FF4B46DB0702D5291CFFF7FEFE011C80
:101FC000FFF7FBFE4346DB0702D5291CFFF7F5FEB2
:101FD000011CFFF7F2FEFF0713D4011CFFF7EDFE13
:101FE000F60702D5291CFFF7E8FE011CFFF7E5FE06
:101FF000E40702D5291CFFF7E0FEC0BCB946B04695
:10200000F8BD291CFFF7D9FEE7E7C046F8B5040084
:10201000061C0D1C002817DA4B001B0E7F3B0ED44C
:102020001722D31A0BD401210A009A40013A2A42FE
:1020300005D1172B2BD02A00DA40114227D180235B
:102040001B069C466444261C281CFFF70FFFFF2339
:102050002200DB05070001001A401C4222D09A42F0
:1020600020D063021ED1274B984246DBFF2842DC7A
:10207000E40D7F3C67433B007F330020002B10DDE5
:10208000FE2B3CDCFE23FF059B05F81809E08023AE
:102090001B06E018291CFFF7B9FF80231B069C468E
:1020A0006044F8BD002F10D03B002033402B0FD8E8
:1020B000002F06DAFE20311C8005FFF76AFE794208
:1020C000061C301CFFF746FFEBE7FE208005E8E723
:1020D000301CFFF703FFFFF77FF906000F00281CF5
:1020E000FFF7FCFE32003B00FFF751F9FFF768F9FC
:1020F000FFF75AF9D5E7FF27BAE71F00B8E7FF2037
:10210000C005CEE700FFFFFFF0B5C6460C1CFE2160
:1021100000B58905071CFFF77FFE3D1C00282DD167
:10212000FF26F60533002340984626422AD0594917
:10213000381CFFF771FE002827D0B04522D080253B
:10214000544AE30DFF35FF2B5CD053498B4254D0EA
:10215000FF200100194018420BD07F3957D41723B4
:102160005B1A002B05DD012199400B00013B234246
:102170004DD1211C381CFFF749FF051C281C80BCD1
:10218000B846F0BDFE25AD05F8E73A003E4214D151
:10219000E30D002C19DB7F3B0DD41722D31A0AD490
:1021A00001210A009A40013A224204D1172BE5D0BE
:1021B000DC402142E2D10025E0E7FD0DFF2D3CD1BE
:1021C000002CF8DBFF25ED05D8E7FF2213407F3B0D
:1021D000F8D4E83AD31AF5D401210A009A40013A1A
:1021E0002242EFD1172B02D0DC402142EAD0FF255A
:1021F000FF0FFF07ED053D43C0E7FF232B407E2B7C
:10220000E0D9D8E72B407E2BDCD80025B6E7002AA2
:10221000D8DB381CFFF762FEFFF7DEF806000F0080
:10222000201CFFF75BFE32003B00FFF7B0F8FFF722
:10223000C7F8FFF7B9F8051CA0E71749E30D8D4271
:1022400000D080E7002C10DB7F3BBBD41722D31AD1
:10225000B8D4163A9A40013A2242B3D1172B02D091
:10226000DC40E407AED50D4D88E7FF2213407F3BED
:10227000A1D4E83AD31A9ED4163A9A40013A22429F
:1022800099D1172B02D0DC40E40794D580252D0688
:1022900074E7C046000080BFFF010000000080FF1F
:1022A00007B5604601880A0A0230DF2AFAD1C9B2AE
:1022B000820804D3028840880004104300E00068CC
:1022C000014A5050039007BD680400200021C21548
:1022D0008032803201D0024A10470020704700004F
:1022E000CD2A0000C30FDB0741000A0E07D0FF2AEA
:1022F00008D00909054A8918194340077047190091
:10230000002070470249C918FAE7000000000038B1
:102310000000F07F01480421014B1847D001002044
:1023200019100010014B5B6818470000D001002015
:1023300010B5002800D110BD00F014F9FBE7C0462D
:1023400010B5094A0300146884B0002C08D001229B
:1023500000910648524203A9A047012004B010BDD5
:1023600000F04AF90020F9E74C0800203123001062
:1023700000BEFDE710B5FFF7FBFFC04670B5FEF7E6
:1023800089FE074D074EB54209D20024013E761B57
:10239000B60808CD984723000134B342F9D170BD87
:1023A000CC270010D4270010030010B5080011003E
:1023B0001B68984710BDC046F0B5C64600B5437DC2
:1023C00007000C001600002B46D0002A17DD0B7802
:1023D0000A2B24D000239846012E13D00125290072
:1023E000635C01350A2B26D0B542F8D1464509DC9D
:1023F000A419013C23780D3B5A4253413B7580BCE4
:10240000B846F0BD4346E018A419F11A013C3B68F8
:10241000984723780D3B5A4253413B75EFE7037DC4
:10242000002BD7D102210F483B689847012EDFD0FF
:1024300001239846D2E7631E5B5C0D2BD4D0884500
:1024400004DA4346C91AE0183B6898470221054858
:102450003B68A8469847C7E70368110020009847E3
:10246000CDE7C046A4280010F0B54546DE464E46EE
:102470005746E0B583B091461C0080460D00FEF73C
:1024800053FC0023304A12184B41002B02DA012280
:102490002E4B52422E4908008A4600F071F907007F
:1024A0006B1C03D1404600F0C5F80500002C27D076
:1024B000284E294B1C68002C18D04B46002B21D1EC
:1024C000264B994602E02469002C0FD02368002B8C
:1024D000F9D04B461B68002B01D09C42F3D1200061
:1024E0002A004146B0472469002CEFD1002F26D1A5
:1024F000280003B0F0BCBB46B246A946A046F0BDDA
:10250000174ED6E7154B99460A239B4602E02469ED
:10251000002CEBD02368002BF9D04B461B68002B16
:1025200001D0A342F3D12A0041462000B0476B46B8
:102530005A462000DA71D91D0122B047E7E750461C
:1025400000F00EF9D4E7C04640420F00FFFFFF7FC6
:10255000E0010020B92300104407002048070020B4
:10256000A9230010F0B5CE46474680B583B06B4630
:102570000600DD1D2870FEF7D7FB0023194A12184C
:102580004B41002B02DA0122174B52421749080037
:10259000884600F0F5F8164B81461C68002C14D0D4
:1025A000144F02E02469002C0FD02368002BF9D0CF
:1025B0003B68002B01D09C42F4D12000012229006D
:1025C000FFF7FAFE2469002CEFD14B46002B05D112
:1025D000300003B0C0BCB946B046F0BD404600F084
:1025E000BFF8F5E740420F00FFFFFF7FE00100204A
:1025F000440700204807002070B5040000F01AF8D6
:1026000001230100050001222000FFF72DFF084BE8
:102610001C68002C06D06368002B05D098472469FD
:10262000002CF8D1280070BD2469002CF3D1F9E703
:102630004407002010B583070AD00300032102E0FD
:1026400001330B4205D01A78002AF9D1181A10BDAF
:10265000030019680C4A0D4C8A188A4322420FD194
:102660005968094A04338A188A43224208D15968B2
:10267000054A04338A188A432242F1D000E001332C
:102680001A78002AFBD1E1E7FFFEFEFE8080808001
:1026900070B5074C074D641BA41005D0013CA30086
:1026A000EB589847002CF9D100F056F870BDC046A1
:1026B000D4270010D427001010B5010000230022F9
:1026C000002000F001F810BDF0B5C6461A4C00B568
:1026D0002568002D2AD06C681F2C2ADC002808D120
:1026E0000020631C0234A4006B60615180BCB846BA
:1026F000F0BD8827A600AE19F2510137FF37BC465E
:102700000122AC446746A2403F68904617436246A8
:10271000176084277F00F3510228E1D12800424648
:102720008D30FF30036813430360D9E7034D256004
:10273000D1E701204042D9E714070020840500209A
:10274000034B10B5002B02D00248FFF7B5FF10BDB8
:102750000000000091260010F8B5C04600000000FF
:1027600001B40248844601BC604700BF5901002003
:1027700001B40248844601BC604700BF81010020CB
:1027800001B40248844601BC604700BFC10000207C
:10279000BD100010E9100010CD120010152300101C
:1027A000F1130010F11E0010F511001005110010BA
:1027B00025110010391100107D0500104111001085
:1027C000FD08001085100010D104001041270010F2
:0427D000FD020010F6
:1027D4000A2A2A2A2050414E4943202A2A2A0A003A
:1027E4000A000000486172647761726520616C615F
:1027F400726D20256420616C726561647920636C5C
:1028040061696D65640000004861726420617373DE
:102814006572740052656C6561736500626F6F74F4
:10282400325F77323571303830000000322E322E6C
:10283400300000007069636F0000000050574D00C5
:102844004A756E203238203230323600060052503B
:10285400D3F075421828001006005250E182887F98
:102864002028001006005250ABB3605330280010EB
:1028740006005250BBFF3CB63828001006005250E8
:10288400861C030240280010060052505422A29DC8
:102894004428001005005250DE65F468EC2900104D
:0428A4000D0A000019
:1028A800502800105C2800106828001074280010B8
:0C28B800802800108C28001098280010C8
:1028C400F0B5C646150000B504001E000268EFF31B
:1028D400108172B61368002BFCD0BFF35F8F042302
:1028E400E3562268002B2BDBBFF35F8F00201060C0
:1028F40081F31088D02212061278002752B2904633
:102904009A420ED1002080BCB846F0BDBFF35F8F61
:10291400176081F310882800310000F035F8002892
:10292400F0D12268EFF3108172B61368002BFCD04B
:10293400BFF35F8F237922687F2BE7D9434602E0F8
:10294400D0231B061B682371BFF35F8F0023136022
:1029540081F310880120D6E70268EFF3108172B684
:102964001368002BFCD0BFF35F8FFF230371036850
:10297400BFF35F8F00221A6081F3108840BF704755
:102984007047C0460000000001B40248844601BC00
:10299400604700BFF90B00101000000000000000A9
:1029A4000000000000000000000000000000000023
:1029B400E80100200000000000000000000000000A
:1029C400503300004C3300005433000052330000F5
:1029D4004D5300004D4300005334000043340000C5
:0829E4000000000000000000EB
:04000005100001E9FD
:00000001FF
